:020000040800F2
:1000000000000824190B0008350A0008370A000808
:10001000390A00083B0A00083D0A000800000000F9
:100020000000000000000000000000003F0A00087F
:10003000410A000800000000430A0008450A0008C1
:10004000690B0008690B0008690B0008690B0008C0
:10005000690B0008690B0008690B0008690B0008B0
:10006000690B0008690B0008690B0008690B0008A0
:10007000690B0008690B0008690B0008690B000890
:10008000690B0008690B0008690B0008690B000880
:10009000690B0008690B0008690B0008690B000870
:1000A000690B0008690B0008690B0008690B000860
:1000B000690B0008690B0008690B0008690B000850
:1000C000690B0008690B0008690B0008690B000840
:1000D000690B0008690B0008690B0008690B000830
:1000E000690B0008690B000800000000690B00089C
:1000F000690B0008690B0008690B0008690B000810
:10010000690B0008690B0008690B0008690B0008FF
:10011000690B0008690B0008690B0008690B0008EF
:10012000690B0008690B0008690B0008690B0008DF
:10013000690B0008690B0008690B0008690B0008CF
:1001400000000000000000000000000000000000AF
:10015000690B0008690B0008690B0008690B0008AF
:10016000690B0008690B0008690B0008690B00089F
:10017000690B0008690B0008690B0008000000000B
:10018000690B0008690B0008690B0008690B00087F
:10019000690B0008690B0008690B0008690B00086F
:1001A000690B0008690B0008690B0008690B00085F
:1001B000690B0008690B0008690B0008690B00084F
:1001C000690B0008690B0008690B0008690B00083F
:1001D000690B00084D0A0008690B0008690B00084C
:1001E000690B0008690B0008690B0008690B00081F
:1001F000690B0008690B0008690B0008690B00080F
:10020000690B0008690B0008690B0008690B0008FE
:10021000690B0008690B0008690B0008690B0008EE
:10022000690B0008690B0008690B0008000000005A
:10023000690B0008690B000800000000690B00084A
:10024000690B0008690B0008690B0008690B0008BE
:10025000690B0008690B0008690B0008690B0008AE
:10026000690B0008690B0008690B0008690B00089E
:10027000690B0008690B0008690B0008000000000A
:10028000690B0008690B0008690B000800000000FA
:0802900000000000690B0008EA
:1002980010B5054C237833B9044B13B10448AFF3B8
:1002A80000800123237010BD4405002400000000D5
:1002B800B055000808B5034B1BB103490348AFF319
:1002C800008008BD0000000048050024B055000863
:1002D80080F0004002E000BF81F0004142001FBFF3
:1002E8005FEA410392EA030F7FEA226C7FEA236CFC
:1002F8006AD04FEA1262D2EB1363C1BFD2184140F1
:1003080048404140B8BF5B42192B88BF704710F086
:10031800004F40F4000020F07F4018BF404211F029
:10032800004F41F4000121F07F4118BF494292EA91
:10033800030F3FD0A2F1010241FA03FC10EB0C00BD
:10034800C3F1200301FA03F100F0004302D549424A
:1003580060EB4000B0F5000F13D3B0F1807F06D3F7
:1003680040084FEA310102F10102FE2A51D2B1F1EF
:10037800004F40EBC25008BF20F0010040EA0300E4
:100388007047490040EB0000013A28BFB0F5000F64
:10039800EDD2B0FA80FCACF1080CB2EB0C0200FA1A
:1003A8000CF0AABF00EBC25052421843BCBFD04069
:1003B8001843704792F0000F81F4000106BF80F4E3
:1003C80000000132013BB5E74FEA41037FEA226CA6
:1003D80018BF7FEA236C21D092EA030F04D092F071
:1003E800000F08BF0846704790EA010F1CBF0020A5
:1003F800704712F07F4F04D1400028BF40F0004002
:10040800704712F100723CBF00F50000704700F021
:10041800004343F0FE4040F4000070477FEA226248
:1004280016BF08467FEA23630146420206BF5FEA19
:10043800412390EA010F40F4800070474FF0000319
:1004480004E000BF10F0004348BF40425FEA000CE0
:1004580008BF704743F0964301464FF000001CE088
:1004680050EA010208BF70474FF000030AE000BFDE
:1004780050EA010208BF704711F0004302D540421C
:1004880061EB41015FEA010C02BF8446014600208E
:1004980043F0B64308BFA3F18053A3F50003BCFAA9
:1004A8008CF2083AA3EBC25310DB01FA02FC634456
:1004B80000FA02FCC2F12002BCF1004F20FA02F25D
:1004C80043EB020008BF20F00100704702F1200250
:1004D80001FA02FCC2F1200250EA4C0021FA02F2B1
:1004E80043EB020008BF20EADC7070474FF0FF0CB6
:1004F8001CEAD0521EBF1CEAD15392EA0C0F93EAB1
:100508000C0F6FD01A4480EA010C400218BF5FEA52
:1005180041211ED04FF0006343EA501043EA5111C5
:10052800A0FB01310CF00040B1F5000F3EBF4900BF
:1005380041EAD3715B0040EA010062F17F02FD2AC3
:100548001DD8B3F1004F40EBC25008BF20F00100A6
:10055800704790F0000F0CF0004C08BF49024CEABD
:10056800502040EA51207F3AC2BFD2F1FF0340EA4F
:10057800C250704740F400004FF00003013A5DDCC0
:1005880012F1190FDCBF00F000407047C2F1000201
:10059800410021FA02F1C2F1200200FA02FC5FEAEE
:1005A800310040F1000053EA4C0308BF20EADC7038
:1005B800704792F0000F00F0004C02BF400010F4AA
:1005C800000F013AF9D040EA0C0093F0000F01F057
:1005D800004C02BF490011F4000F013BF9D041EA79
:1005E8000C018FE70CEAD15392EA0C0F18BF93EA7B
:1005F8000C0F0AD030F0004C18BF31F0004CD8D1A5
:1006080080EA010000F00040704790F0000F17BF2B
:1006180090F0004F084691F0000F91F0004F14D071
:1006280092EA0C0F01D142020FD193EA0C0F03D1C9
:100638004B0218BF084608D180EA010000F00040CC
:1006480040F0FE4040F40000704740F0FE4040F4A7
:10065800400070474FF0FF0C1CEAD0521EBF1CEA46
:10066800D15392EA0C0F93EA0C0F69D0A2EB030264
:1006780080EA010C49024FEA402037D04FF08053FE
:1006880043EA111143EA10130CF000408B4238BFC3
:100698005B0042F17D024FF4000C8B4224BF5B1AD1
:1006A80040EA0C00B3EB510F24BFA3EB510340EA1F
:1006B8005C00B3EB910F24BFA3EB910340EA9C00CD
:1006C800B3EBD10F24BFA3EBD10340EADC001B013D
:1006D80018BF5FEA1C1CE0D1FD2A3FF650AF8B42E1
:1006E80040EBC25008BF20F0010070470CF0004CEE
:1006F8004CEA50207F32C2BFD2F1FF0340EAC25019
:10070800704740F400004FF00003013A37E792F0D9
:10071800000F00F0004C02BF400010F4000F013A37
:10072800F9D040EA0C0093F0000F01F0004C02BF32
:10073800490011F4000F013BF9D041EA0C0195E79B
:100748000CEAD15392EA0C0F08D142027FF47DAF34
:1007580093EA0C0F7FF470AF084676E793EA0C0F24
:1007680004D14B023FF44CAF08466EE730F0004C22
:1007780018BF31F0004CCAD130F000427FF45CAFB2
:1007880031F000437FF43CAF5FE700BF42000ED278
:10079800B2F1FE4F0BD34FF09E03B3EB126209D4B4
:1007A8004FEA002343F0004323FA02F070474FF06A
:1007B8000000704712F1610F01D1420202D14FF0DF
:1007C800FF3070474FF00000704700BF00B589B098
:1007D800002303930493059306930793114BD3F8CF
:1007E800E02042F08002C3F8E020D3F8E02002F0D5
:1007F80080020192019AD3F8E02042F00102C3F886
:10080800E020D3F8E03003F001030293029B0C23AD
:1008180003930DEB0301044800F0DEFA09B05DF81C
:1008280004FB00BF00440258001C025810B584B0F5
:100838000024009401940294039400F07FFA0123A9
:100848008DF800308DF8014001941F228DF80820A2
:1008580087228DF809208DF80A408DF80B408DF815
:100868000C308DF80D308DF80E408DF80F4068462D
:1008780000F082FA042000F06FFA04B010BD72B6DE
:10088800FEE7000000B59FB04C2200210BA804F041
:10089800C9FD2022002103A804F0C4FD022001F0B4
:1008A80041FA00230093394BDA6A22F00102DA6236
:1008B800DB6A03F001030093354B9A6942F4404226
:1008C8009A619B6903F440430093009B304B9B69FA
:1008D80013F4005FFAD02F4BD3F8F42042F0020251
:1008E800C3F8F420D3F8F43003F002030193019B1A
:1008F80000230293264B9A6942F440429A619B690D
:1009080003F440430293214BDA6A42F00102DA62AF
:10091800DB6A03F001030293029B1D4B9B6913F4EE
:10092800005FFAD001230B934FF480330C9302231A
:100938001493159305221692C02217921893102229
:1009480019921A9308231B9300231C931D930BA839
:1009580001F01AFAB0B93F23039303230493002349
:100968000593082306934023079308934FF4806266
:1009780009920A93042103A801F06CFE20B91FB064
:100988005DF804FBFFF77BFFFFF779FF00040058D1
:10099800004802580044025800B583B0FFF746FFEC
:1009A80000F008F9FFF76EFFFFF710FF04F0EEFA0A
:1009B800124B93E8030002AB03E903000FE00421A4
:1009C8000F4800F01DFB012813D000238DF80230DA
:1009D800082269460B4803F0D3FC0028F8D1082107
:1009E800074800F00DFB0128E9D104238DF80230F7
:1009F800EEE705238DF80230EAE700BFC855000886
:100A0800001C02586805002482B0074BD3F8F42074
:100A180042F00202C3F8F420D3F8F43003F00203E2
:100A28000193019B02B0704700440258FEE7FEE7BD
:100A3800FEE7FEE7FEE770477047704708B500F02D
:100A4800E7F808BD08B5024800F029FE08BD00BF58
:100A5800440A0024244B1B6803F00F03062B06D816
:100A6800214A136823F00F0343F0070313601F4B59
:100A78001A6842F001021A6000221A6119681C4AB9
:100A88000A401A60184B1B6813F0080F06D0164A64
:100A9800136823F00F0343F007031360134B00227E
:100AA8009A61DA611A62134999621349D962134942
:100AB80019635A639963DA6319645A64196821F4EB
:100AC800802119601A660E4B1A680E4B1340B3F159
:100AD800005F03D20C4B0122C3F808210B4B43F2F1
:100AE800D2021A60704700BF00200052004402582A
:100AF8007FEDF6EA000202020000FF018002010118
:100B08000010005C0000FFFF008000510040005210
:100B1800DFF834D0FFF79EFF0C480D490D4A00233B
:100B280002E0D458C4500433C4188C42F9D30A4A9A
:100B38000A4C002301E013600432A242FBD304F004
:100B48004DFCFFF729FF704700000824000000242F
:100B5800440500242056000844050024680F00249A
:100B6800FEE70000104B1B780BB90120704710B549
:100B780004464FF47A70B0FBF3F30C4A1068B0FBEC
:100B8800F3F000F0C7F868B90F2C01D901200AE08A
:100B9800002221464FF0FF3000F078F8044B1C602B
:100BA800002000E0012010BD0800002400000024FF
:100BB8000C00002410B5032000F056F801F03EFCAC
:100BC8000F498B69C3F303230E4AD35C03F01F0359
:100BD800D8408B6903F00F03D35C03F01F0320FA9E
:100BE80003F3094A1360094B18600F20FFF7BAFF97
:100BF80010B10124204610BD0446FFF705FFF9E7B0
:100C080000440258D05500080400002400000024C5
:100C1800034B1B78034A11680B441360704700BFED
:100C28000800002460050024014B1868704700BFC5
:100C38006005002438B50446FFF7F6FF0546B4F111
:100C4800FF3F02D0044B1B781C44FFF7EDFF401B0D
:100C5800A042FAD338BD00BF08000024014B186831
:100C6800000C70470010005C0649CB6823F4E06371
:100C78001B041B0C000200F4E0600343024A1A4301
:100C8800CA60704700ED00E00000FA0500B5174B98
:100C9800DB68C3F30223C3F1070CBCF1040F28BFC0
:100CA8004FF0040C03F1040EBEF1060F14D9033BF8
:100CB8004FF0FF3E0EFA0CFC21EA0C0199400EFAA7
:100CC80003F322EA03031943002807DB0901C9B229
:100CD800074B19545DF804FB0023E9E700F00F0007
:100CE8000901C9B2034B1954F4E700BF00ED00E055
:100CF80000E400E014ED00E0002807DB00F01F022C
:100D0800400901239340024A42F82030704700BF4F
:100D180000E100E00138B0F1807F0BD24FF0E02312
:100D28005861054AF02182F82310002098610722B3
:100D38001A6170470120704700ED00E0BFF35F8F34
:100D4800044B5A6A22F480325A620022C3F8942073
:100D5800704700BF00ED00E040F00100054BC3F80C
:100D680094005A6A42F480325A62BFF34F8FBFF33D
:100D78006F8F704700ED00E04278164BC3F898205B
:100D88000378FBB14368134AC2F89C30017BC37AED
:100D98001B0643EA0173817A43EAC143417B43EA74
:100DA8008143817B43EA4143C17B43EA0143417A62
:100DB80043EA0123017A43EA410301780B43C2F86D
:100DC800A0307047034B0022C3F89C20C3F8A02032
:100DD800704700BF00ED00E070B582B000236EE000
:100DE80085685E000324B44025EA0405CC68B44055
:100DF8002C438460446824EA0C0C4C68C4F3001447
:100E08009C4044EA0C0444606CE0DD08083550F866
:100E1800256003F007044FEA840C0F2404FA0CF44D
:100E280026EA040E0C6904FA0CF444EA0E0440F8AD
:100E380025406FE0092400E0002404FA0EF42C4356
:100E48000CF1020C6B4D45F82C404FF0B04425686E
:100E5800D44325EA0206D1F804C01CF4801F01D04F
:100E680042EA05064FF0B0452E606D6804EA0506B3
:100E7800D1F804C01CF4001F01D042EA05064FF067
:100E8800B0456E60D5F8845004EA0506D1F804C070
:100E98001CF4003F01D042EA05064FF0B045C5F802
:100EA8008460D5F880502C404E6816F4803F01D0FD
:100EB80042EA05044FF0B042C2F8804001330A68A4
:100EC80032FA03F400F093804FF0010C0CFA03FCA3
:100ED8001CEA0202F2D04C6804F00304013C012C25
:100EE8007FF67EAF4C6804F00304032C0CD0C46872
:100EF8005D004FF0030C0CFA05FC24EA0C0C8C681E
:100F0800AC4044EA0C04C4604C6804F00304022CAE
:100F18003FF47BAF04684FEA430E4FF0030C0CFA22
:100F28000EFC24EA0C0C4C6804F0030404FA0EF4DA
:100F380044EA0C0404604C6814F4403FBED02E4CC4
:100F4800D4F8F45045F00205C4F8F450D4F8F4404D
:100F580004F002040194019C4FEA930C0CF1020581
:100F6800244C54F8255003F003044FEA840E0F2450
:100F780004FA0EF425EA0405204CA0423FF45CAFC5
:100F880004F58064A04222D004F58064A04220D0F9
:100F980004F58064A0421ED004F58064A0421CD0F1
:100FA80004F58064A0421AD004F58064A04218D0E9
:100FB80004F58064A04216D004F58064A04214D0E1
:100FC80004F58064A0423FF435AF0A2435E70124D4
:100FD80033E7022431E703242FE704242DE705240F
:100FE8002BE7062429E7072427E7082425E702B08A
:100FF80070BD00BF000400580044025800000258A9
:101008000369194201D001207047002070472DE97B
:10101800F04383B0D0F8008001EBC10300EB8303F9
:101028001A6DDB6C9A4254D807460C469B1A01EBA2
:10103800C10200EB8202526C9A4200D31A4602F1B6
:1010480003094FEA990915E006F103094FEA9909DE
:1010580004EBC40507EB8505A96C3B7B0093B3B291
:10106800E2B2404602F0EEFDAB6C3344AB642B6D4C
:1010780033442B6508EB441303F510639B699BB25B
:101088004B4512D304EBC40207EB8202116DD36CFB
:1010980099420AD24BB15B1A04EBC40207EB8202F5
:1010A800566C9E42D0D31E46CEE704EBC40007EB35
:1010B8008007FA6C3B6D9A420FD804F00F040123A5
:1010C800A340D8F8344824EA0304C8F83448002078
:1010D80000E0012003B0BDE8F0830020FAE770B516
:1010E8008AB0002800F097800546046890F8BD345F
:1010F8003BB3032385F8BD34E36B13F4807F01D140
:101108000023EB60286802F051FB2C4654F8106B62
:10111800EC460FCCACE80F000FCCACE80F0094E81D
:1011280003008CE803002B1D0ECB304602F078FA42
:10113800044658B1022385F8BD34012420460AB07C
:1011480070BD80F8BC3403F0DDFFD2E700212868C9
:1011580002F093FF234616E003EBC30205EB82027D
:10116800012182F83D1082F83C30A2F85630002167
:1011780082F840105164916403EBC30205EB8202CC
:10118800D1640133DBB269688B42E5D316E004EB26
:10119800C40305EB8303002283F87D2283F87C4295
:1011A80083F88022C3F88422C3F8882204EBC4039E
:1011B80005EB8303C3F88C220134E4B2A142E6D8DC
:1011C8002C4654F8106BEC460FCCACE80F000FCC53
:1011D800ACE80F0094E803008CE803002B1D0ECB4D
:1011E800304602F03FFB044660B9002385F83830EA
:1011F800012385F8BD346B6A012B08D0286802F0FA
:10120800FAFE9BE7022385F8BD34012496E72846B9
:1012180000F072FDF2E7012490E7036890F8BC241F
:10122800012A1AD010B50446012280F8BC24DA6BD2
:1012380012F4807F02D1826A012A09D0206802F064
:10124800AFFA206802F0C9FE002084F8BC0410BD83
:101258009A6B42F480329A63F0E7022070470000EC
:1012680070B504460D460068066C00EB411303F5A3
:1012780030639A68E168012911D038498E4256D006
:101288003DB905EBC50304EB8303D3F88C32002B7F
:101298005ED0E9B2204603F097FF002070BD12F03F
:1012A800080F09D02E498E42F7D912F4004FF4D016
:1012B8004FF400429A60F0E712F0200F02D020228B
:1012C8009A60EAE712F0280FE7D125498E4206D93D
:1012D80012F4004F03D04FF400429A60DDE705EBAB
:1012E800C50204EB8202D2F89C121B69C3F31203F5
:1012F800CB1AC2F890327DB905EBC50204EB820225
:10130800D2F88C226AB105EBC50204EB8202D2F84E
:1013180088120B44C2F88832E9B2204603F054FF21
:10132800BBE704F2C442012102F0E8FEF4E712F43C
:10133800004F03D04FF400429A60AEE712F0200F3E
:1013480001D020229A60E9B2204603F03DFFA4E7CD
:1013580004F2C442002102F0D1FE9AE70A31544F48
:101368000A30544F38B5044603681D6C03EB41132B
:10137800D3F8081B0E4A954207D903F5306311F4D8
:10138800004F02D04FF400429A60204603F014FF49
:10139800074B9D4202D9E368012B01D0002038BDDC
:1013A80004F2C4420121206802F0A8FEF6E700BF5B
:1013B8000A30544F90F8BC34012B0DD010B50446B8
:1013C800012380F8BC3480F83810006802F0F5FD7D
:1013D800002084F8BC0410BD0220704738B50546CB
:1013E8008C4611F0800F29D101F00F0E0EEBCE04C0
:1013F800A40004F51E740444211D0EEBCE0E00EB70
:101408008E0E00208EF87D020CF00F0C81F800C0C3
:101418008A600B714A780AB1A1F81AC0022B1DD054
:1014280095F8BC34012B1CD0012385F8BC342868FE
:1014380002F0ECFA002085F8BC0438BD01F00F007A
:1014480000EBC001890038312944043100EBC000A9
:1014580005EB8000012480F83D40D5E700234B715F
:10146800DEE70220E9E710B504460A4611F0800FCE
:1014780020D101F00F0000EBC0039B0003F51E73A1
:101488002344191D00EBC00004EB8000002380F802
:101498007D3202F00F020A7094F8BC34012B19D087
:1014A800012384F8BC34206802F0FEFA002084F896
:1014B800BC0410BD01F00F0000EBC0039B003833E3
:1014C8002344191D00EBC00004EB8000012380F8C1
:1014D8003D30DEE70220ECE708B501F00F0C0CEB1D
:1014E800CC01890001F51E71014404310CEBCC0ECE
:1014F80000EB8E0ECEF88822CEF88C320023CEF880
:1015080090328EF87D328EF87CC2C368012B05D0EC
:10151800DAB2006802F0AEFB002008BDCEF89822CF
:10152800F6E708B501F00F0C0CEBCC018900383157
:10153800014404310CEBCC0E00EB8E0ECEF84820A3
:10154800CEF84C300023CEF8503001238EF83D30D1
:101558008EF83CC0C368012B05D0DAB2006802F0EF
:1015680089FB002008BDCEF85820F6E738B501F011
:101578000F054268954239D804460B4611F0800F92
:101588001FD101EBC101890001F51E71014404312D
:1015980003EBC30300EB8303002283F87D220123BE
:1015A8008B700D7094F8BC34012B21D0012384F882
:1015B800BC34206802F0A6FC8DB1002084F8BC047D
:1015C80038BD05EBC501890038310144043105EB0C
:1015D800C50300EB8303012283F83D20DFE704F213
:1015E800C442217B206802F089FDE6E70120E7E795
:1015F8000220E5E701F00F034268934231D810B5A5
:10160800044611F0800F1ED103EBC301890001F5D8
:101618001E710144043103EBC30200EB8202002077
:1016280082F87D0200228A700B7094F8BC34012B7A
:1016380019D0012384F8BC34206802F090FC002003
:1016480084F8BC0410BD03EBC301890038310144A0
:10165800043103EBC30200EB8202012082F83D0053
:10166800E0E7012070470220ECE708B511F0800F91
:101678000CD101F00F0101EBC101890001F51E71C8
:1016880001440431006802F07FFA08BD01F00F013F
:1016980001EBC1018900383101440431F2E72DE939
:1016A800F04F83B004460568284602F0E2FC10B10A
:1016B80003B0BDE8F08F0646206802F0AAFC0028B7
:1016C800F6D005F50067BB68C3F30D23C4F8FC34F6
:1016D800206802F09EFC10F0020F04D022685369C3
:1016E80003F002035361206802F093FC10F0100F1E
:1016F80014D02268936923F010039361D5F82080F1
:1017080008F00F09C8F34343022B69D0062B00F0F9
:101718008D802268936943F010039361206802F07A
:1017280078FC10F4002F40F09380206802F071FCE0
:1017380010F4802F40F0FC80206802F06AFC00283A
:10174800C0F27F81206802F064FC10F4006F09D0B9
:10175800BB6813F0010F40F08C812268536903F4D1
:1017680000635361206802F054FC10F0006F15D03C
:101778002268536903F00063536194F8F434002B32
:1017880040F07B81012184F8F41423685B6DC3F376
:101798008303C4F8F834204600F0C2FA206802F047
:1017A80038FC10F4805F40F06C81206802F031FC56
:1017B80010F4005F40F0B881206802F02AFC10F0B5
:1017C800080F40F0C981206802F023FC10F0800F58
:1017D80000F0DC81AB6923F08003AB610126C5E131
:1017E80047F6F07318EA030F93D04FEA181B4FEA35
:1017F800C903019309EBC90A04EB8A0AC8F30A1260
:10180800DAF88812284602F053FBCBF30A0BDAF811
:1018180088325B44CAF88832019B4B4404EB83034B
:10182800D3F890325B44CAF8903272E7082204F287
:10183800C441284602F03CFBC8F30A1809EBC90268
:1018480004EB8202D2F890324344C2F8903260E747
:10185800206802F0E2FB8046B14635E005EB49130B
:101868000122C3F8082B49462046FFF7F9FC3CE063
:1018780005EB49130822C3F8082B49462046FFF711
:1018880071FD35E009EBC90304EB830393F87F325C
:10189800012B41D005EB49130222C3F8082B1AF09B
:1018A800200F04D005EB49132022C3F8082B1AF4A3
:1018B800005F05D005EB49134FF40052C3F8082B1D
:1018C80009F101094FEA5808B8F1000F3FF42DAFAC
:1018D80018F0010FF4D05FFA89FB5946206802F02E
:1018E800ACFB824610F0010FB8D11AF0080FBFD137
:1018F8001AF0100F04D005EB49131022C3F8082B77
:101908001AF0020FCBD06B6913F0800FBAD07B6846
:1019180043F480637B60B5E709EBC90304EB8303F9
:10192800002283F87F225946204603F09FFCB1E746
:10193800206802F07AFB8046B14625E059462046E9
:1019480003F04EFC1AF0080F04D005EB49130822E7
:10195800C3F808291AF0100F04D005EB4913102218
:10196800C3F808291AF0400F04D005EB49134022A8
:10197800C3F808291AF0020F40D11AF0800F5BD182
:1019880009F101094FEA5808B8F1000F3FF4D4AE45
:1019980018F0010FF4D05FFA89FB5946206802F06D
:1019A80055FB824610F0010FCCD009F00F0301213E
:1019B80001FA03F27B6B23EA02037B6305EB49130D
:1019C800C3F80819E3688B42B8D109EBC90304EBE3
:1019D8008303596C9A6C0A449A64B9F1000FADD12B
:1019E80009EBC90304EB8303DB6C002BA6D104F2DB
:1019F800C4420121206802F081FB9FE7494628463E
:101A080001F0DAFE09EBC90304EB830393F83F30D6
:101A1800012B05D005EB49130222C3F80829ACE7CE
:101A280009EBC90304EB8303002283F83F205946DE
:101A3800204603F021FCEDE749462046FFF7E7FA88
:101A48009EE77B6823F001037B6094F8F434012B54
:101A580008D0204603F004FC2268536903F00043D1
:101A680053616FE6002184F8F414204600F058F919
:101A7800F2E7204603F0DCFB6FE6204603F0D8FBD4
:101A88008CE67B6823F001037B601021206801F05D
:101A980093FE1AE005EB46134FF67F31C3F8081999
:101AA800D3F8002922F40012C3F80029C3F8081B50
:101AB800D3F8002B22F40012C3F8002BD3F8002B24
:101AC80042F00062C3F8002B01366368B342E1D8E4
:101AD800FB6943F00113FB61236BDBB1D7F884305A
:101AE80043F00B03C7F884307B6C43F00B037B6433
:101AF800D5F8003823F4FE63C5F8003804F2C44270
:101B0800217B206802F0FAFA2268536903F48053B3
:101B180053614AE67A6942F22B0313437B613B69BE
:101B280043F00B033B61E3E7206802F0D7FA206833
:101B380001F05CFF2061266800F0D6FE0146227C99
:101B4800304601F0BBFD204603F05BFB2268536979
:101B580003F4005353612FE6204603F04CFB226840
:101B6800536903F0080353612DE601366368B342F5
:101B78000CD906EBC60304EB830393F87F32012BE1
:101B8800F3D1F1B22046FFF770FDEEE7206802F0CE
:101B980040FA10F4801F27D1206802F03AFA10F4B6
:101BA800001F5BD0012328E001366368B3421DD9CA
:101BB80005EB4613D3F8002906EBC60304EB8303B1
:101BC80093F84030012BEFD1002AEDDA06EBC6037B
:101BD80004EB8303012283F83F2066F07F01C9B23A
:101BE8002046FFF742FDDFE70126DEE7226853695A
:101BF80003F480135361CFE7013362689A4228D90E
:101C080005EB4312D2F8001B03EBC30204EB82027C
:101C180092F88022012AEFD10029EDDA01F480310F
:101C2800D4F8FC2402F001029142E5D103EBC3028F
:101C380004EB8202012182F87F12AA6942F0800235
:101C4800AA616A6912F0800FD6D17B6843F40073E9
:101C58007B602268536903F400135361206802F023
:101C6800D8F910F0804F10D1206802F0D2F910F0A6
:101C7800040F3FF41DAD23685D6815F0040F0DD106
:101C8800226853682B43536012E5204603F0FAFAA2
:101C98002268536903F080435361E5E7204603F067
:101CA800F7FAEDE710B40468606A29B940EA02401F
:101CB800A062002010BC70478C46A36A00EB13405A
:101CC800002308E003F1400104EB8101496800EBBF
:101CD80011400133DBB20CF1FF318B42F2D340EA01
:101CE80002400CF13F0104EB81014860E1E7036821
:101CF8005962002070470000034602680121C0F8BD
:101D08000015002083F8F404936943F0006393619D
:101D1800516D024B0B435365704700BF0300001021
:101D280070470000134BDB6813F0040F07D1114B09
:101D3800DB6803F0070383421AD00120704710B50F
:101D48000C4AD36823F007031843D060FEF76CFFF2
:101D58000446084B5B6813F4005F07D1FEF764FF85
:101D6800001BB0F57A7FF4D9012000E0002010BDF7
:101D78000020704700480258024AD36843F0807335
:101D8800D360704700480258002800F0398338B5FE
:101D98000446036813F0010F25D0944A136903F031
:101DA8003803926A102B15D0182B0FD06368B3F53F
:101DB800803F3FD0002B53D18C4B1A6822F48032DD
:101DC8001A601A6822F480221A6038E002F00302CE
:101DD800022AEBD1854B1B6813F4003F03D06368DC
:101DE800002B00F00F83236813F0020F00F0A1808E
:101DF8007E4A1369926A13F038035AD0182B55D0CB
:101E0800E368002B00F0DE8078490A6822F01902A6
:101E180013430B60FEF708FF0546744B1B6813F06D
:101E2800040F40F0AD80FEF7FFFE401B0228F4D9F6
:101E38000320EEE26D4A136843F48033136063684D
:101E48002BB3FEF7F1FE0546684B1B6813F4003F01
:101E5800C9D1FEF7E9FE401B6428F5D90320D8E272
:101E6800B3F5A02F09D0614B1A6822F480321A60AA
:101E78001A6822F480221A60E1E75C4B1A6842F47F
:101E880080221A601A6842F480321A60D7E7FEF797
:101E9800CBFE0546554B1B6813F4003FA3D0FEF755
:101EA800C3FE401B6428F5D90320B2E212F0030FE9
:101EB800A6D14E4B1B6813F0040F03D0E368002B28
:101EC80000F0A282494A136823F01903E1680B4322
:101ED8001360FEF7A9FE0546444B1B6813F0040F78
:101EE80006D1FEF7A1FE401B0228F5D9032090E297
:101EF800FEF7B4FE41F20303984212D82269402A41
:101F080007D03A494B6823F47C3343EA02334B60E9
:101F18000FE0364A536823F47C3343F400335360AC
:101F280007E0324A536823F0FE43216943EA01631C
:101F38005360236813F0100F00F088802B4A136950
:101F480003F03803926A082B56D0182B50D0E36957
:101F5800002B00F0B880254A136843F08003136013
:101F6800FEF762FE0546214B1B6813F4807F40F0A4
:101F78008880FEF759FE401B0228F4D9032048E266
:101F8800FEF76CFE41F20303984212D82269402AF8
:101F980007D016494B6823F47C3343EA02334B607D
:101FA800C7E7124A536823F47C3343F40033536081
:101FB800BFE70E4A536823F0FE43216943EA0163F1
:101FC8005360B6E7094A136823F001031360FEF76C
:101FD8002BFE0546054B1B6813F0040FA9D0FEF72E
:101FE80023FE401B0228F5D9032012E200440258C0
:101FF80002F00302012AAAD1A14B1B6813F4807FC7
:1020080003D0E369802B40F00182FEF727FE41F2FE
:102018000303984212D8226A202A07D098494B68AD
:1020280023F0F84343EA82634B600FE0944A536815
:1020380023F0F84343F08043536007E0904AD368A5
:1020480023F07C53216A43EA0163D360236813F0C9
:10205800080F60D06369002B49D0894A536F43F059
:1020680001035367FEF7E0FD0546854B5B6F13F0F0
:10207800020F50D1FEF7D8FD401B0228F5D90320E6
:10208800C7E1FEF7EBFD41F20303984212D8226A3A
:10209800202A07D07A494B6823F0F84343EA826341
:1020A8004B60D3E7764A536823F0F84343F0804304
:1020B8005360CBE7724AD36823F07C53216A43EA22
:1020C8000163D360C2E76E4A136823F0800313608C
:1020D800FEF7AAFD05466A4B1B6813F4807FB5D04E
:1020E800FEF7A2FD401B0228F5D9032091E1644ABE
:1020F800536F23F001035367FEF796FD0546604BC7
:102108005B6F13F0020F06D0FEF78EFD401B02280E
:10211800F5D903207DE1236813F0200F29D0A369A6
:102128009BB1574A136843F480531360FEF77CFD54
:102138000546534B1B6813F4005F1AD1FEF774FD74
:10214800401B0228F5D9032063E14D4A136823F4A4
:1021580080531360FEF768FD0546494B1B6813F46E
:10216800005F06D0FEF760FD401B0228F5D903206A
:102178004FE1236813F0040F21D1636A002B00F0AC
:1021880047813F4A126902F03802182A00F0EE80AF
:10219800022B79D03A4A136823F080731360FEF754
:1021A80043FD0446364B1B6813F0007F00F0DC80CB
:1021B800FEF73AFD001B0228F4D9032029E1314A31
:1021C800136843F480731360FEF72EFD05462D4B0C
:1021D8001B6813F4807F06D1FEF726FD401B642898
:1021E800F5D9032015E1A368012B0AD00BBB244BBA
:1021F8001A6F22F001021A671A6F22F004021A6796
:1022080004E01F4A136F43F001031367A36833B355
:10221800FEF70AFD05461A4B1B6F13F0020FACD1EF
:10222800FEF702FD401B41F288339842F3D90320A0
:10223800EFE0052B09D0124B1A6F22F001021A6742
:102248001A6F22F004021A67E0E70D4B1A6F42F08A
:1022580004021A671A6F42F001021A67D6E7FEF7FE
:10226800E3FC0546064B1B6F13F0020F85D0FEF703
:10227800DBFC401B41F288339842F3D90320C8E0C5
:102288000044025800480258694A136823F08073D2
:102298001360FEF7C9FC0546654B1B6813F0007F09
:1022A80006D0FEF7C1FC401B0228F5D90320B0E098
:1022B8005F4B996A5F4A0A40A16AE06A41EA0011E5
:1022C8000A439A62226B013AC2F30802616B013930
:1022D800490289B20A43A16B0139090401F4FE01DC
:1022E8000A43E16B0139090601F0FE410A431A630A
:1022F800DA6A22F00102DA62596B4F4A0A40A16C8D
:1023080042EAC1025A63DA6A22F00C02216C0A43DB
:10231800DA62DA6A22F00202616C0A43DA62DA6A85
:1023280042F48032DA62DA6A42F40032DA62DA6A55
:1023380042F48022DA62DA6A42F00102DA621A684A
:1023480042F080721A60FEF76FFC0446384B1B6837
:1023580013F0007F06D1FEF767FC001B0228F5D9B1
:10236800032056E0002054E0002052E0304A916AF1
:10237800106B012B4ED001F00303A26A93424BD19C
:10238800C1F30511E36A994248D1C0F30802236BEF
:10239800013B9A4244D1C0F34622636B013B9A4207
:1023A80040D1C0F30642A36B013B9A423CD1C0F333
:1023B8000660E36B013B984238D11D4B5B6BC3F35E
:1023C800CC03A26C9A4201D1002022E0184AD36AB9
:1023D80023F00103D362FEF727FC0546FEF724FC31
:1023E800A842FBD0124A516B134B0B40A16C43EA35
:1023F800C1035363D36A43F00103D362002008E0AA
:1024080001207047012004E0012002E0012000E0E3
:10241800002038BD0120FCE70120FAE70120F8E799
:102428000120F6E70120F4E70120F2E70120F0E7B8
:10243800004402580CFCFFFF0700FFFFF8B57E4B75
:102448001B6903F03803102B00F0F280182B10D012
:1024580013B17A4C2046F8BD774B1B6813F0200F58
:1024680000F0E880744B1868C0F3C100744CC44095
:10247800F0E7714B9D6A05F003059C6AC4F30514E7
:10248800D86A00F001005B6BC3F3CC0303FB00F0D8
:10249800FDF7D4FF0646002CDCD0012D76D0022DA6
:1024A80000F0A4800DB32046FDF7C8FF014665483B
:1024B800FEF7D0F80446604B186BC0F30800FDF730
:1024C800BDFF05464FF064513046FEF70FF8014650
:1024D8002846FDF703FF4FF07E51FDF7FFFE01464A
:1024E8002046FEF703F8044671E0534B1B6813F0CF
:1024F800200F29D0504F3B68C3F3C1035048D84040
:10250800FDF79CFF05462046FDF798FF0146284643
:10251800FEF7A0F80446386BC0F30800FDF78EFFFD
:1025280005464FF064513046FDF7E0FF0146284666
:10253800FDF7D4FE4FF07E51FDF7D0FE0146204650
:10254800FDF7D4FF044642E02046FDF777FF014639
:102558003D48FEF77FF80446374B186BC0F3080078
:10256800FDF76CFF05464FF064513046FDF7BEFF9E
:1025780001462846FDF7B2FE4FF07E51FDF7AEFE4C
:1025880001462046FDF7B2FF044620E02046FDF74D
:1025980055FF01462B48FEF75DF80446264B186B9D
:1025A800C0F30800FDF74AFF05464FF06451304676
:1025B800FDF79CFF01462846FDF790FE4FF07E513F
:1025C800FDF78CFE01462046FDF790FF04461A4BA6
:1025D8001B6BC3F34623581CFDF730FF014620460A
:1025E800FEF738F8FEF7D2F8044633E72046FDF741
:1025F80025FF01461548FEF72DF804460E4B186BCB
:10260800C0F30800FDF71AFF05464FF06451304645
:10261800FDF76CFF01462846FDF760FE4FF07E513E
:10262800FDF75CFE01462046FDF760FF0446CEE755
:10263800074C0FE7024C0DE70044025800093D0023
:102648000090D0030024744A0024744C20BCBE4B74
:1026580040787D01002800F0328170B50D460446AF
:102668009B4B1B6803F00F038B420BD2984A1368ED
:1026780023F00F030B431360136803F00F038B421F
:1026880040F01F81236813F0040F0CD02269914B8E
:102698009B6903F070039A4205D98E498B6923F030
:1026A80070031A438A61236813F0080F0CD062691B
:1026B800884BDB6903F070039A4205D98549CB69D9
:1026C80023F070031A43CA61236813F0100F0CD06B
:1026D800A269804BDB6903F4E0639A4205D97D491E
:1026E800CB6923F4E0631A43CA61236813F0200F0F
:1026F8000CD0E269774B1B6A03F070039A4205D944
:1027080074490B6A23F070031A430A62236813F0B2
:10271800020F0CD0E2686F4B9B6903F00F039A42DB
:1027280005D96C498B6923F00F031A438A61236822
:1027380013F0010F41D0674A936923F47063A168CD
:102748000B4393616368022B0AD0032B27D0012B1C
:102758002CD0604A126812F0040F06D10120ADE0B7
:10276800126812F4003F00F0AE805A490A6922F05C
:10277800070213430B61FEF757FA0646554B1B69D0
:1027880003F038036268B3EBC20F16D0FEF74CFAB9
:10279800801B41F288339842F0D903208EE04D4ADD
:1027A800126812F0007FE0D1012087E0494A1268E0
:1027B80012F4807FD9D1012080E0236813F0020F42
:1027C8000CD0E268434B9B6903F00F039A4205D291
:1027D80040498B6923F00F031A438A613C4B1B68FD
:1027E80003F00F03AB420AD9394A136823F00F03E9
:1027F8002B431360136803F00F03AB4265D12368C2
:1028080013F0040F0CD02269324B9B6903F070035C
:102818009A4205D22F498B6923F070031A438A61C3
:10282800236813F0080F0CD062692A4BDB6903F0A8
:1028380070039A4205D22749CB6923F070031A43E3
:10284800CA61236813F0100F0CD0A269214BDB6911
:1028580003F4E0639A4205D21E49CB6923F4E0638E
:102868001A43CA61236813F0200F0CD0E269194B90
:102878001B6A03F070039A4205D216490B6A23F0CB
:1028880070031A430A62FFF7D9FD12498B69C3F333
:102898000323114AD35C03F01F03D8408B6903F06C
:1028A8000F03D35C03F01F0320FA03F30B4A1360F2
:1028B8000B4B18600B4B1868FEF754F970BD0120DC
:1028C80070470120FAE70120F8E70120F6E700BF8A
:1028D8000020005200440258D0550008040000248B
:1028E800000000240C00002408B5FFF7A7FD0B4AE0
:1028F8009369C3F303230A49CB5C03F01F0320FA4F
:1029080003F3926902F00F02885C00F01F0023FABB
:1029180000F0044A1060044A136008BD00440258DD
:10292800D05500080400002400000024404B9B6A96
:1029380003F00303032B79D070B505460E463C4AD5
:10294800136823F080631360FEF76EF90446384B72
:102958001B6813F0006F06D0FEF766F9031B022B05
:10296800F5D9032070BD324B9A6A22F47C3229686B
:1029780042EA01329A626A68013AC2F30802A96817
:102988000139490289B20A43E9680139090401F4A5
:10299800FE010A4329690139090601F0FE410A438B
:1029A8009A63DA6A22F0C00269690A43DA62DA6A6B
:1029B80022F02002A9690A43DA62DA6A22F01002D8
:1029C800DA62D96B1B4A0A40E96942EAC102DA6352
:1029D800DA6A42F01002DA62C6B91A46DB6A43F4D0
:1029E8000023D362124A136843F080631360FEF732
:1029F8001BF904460E4B1B6813F0006F14D1FEF749
:102A080013F9001B0228F5D90320ABE7012E05D0E6
:102A1800074AD36A43F40013D362E3E7044AD36A4C
:102A280043F48013D362DDE700209BE70120704761
:102A3800004402580700FFFF404B9B6A03F0030362
:102A4800032B79D070B505460E463C4A136823F02F
:102A580080531360FEF7E8F80446384B1B6813F000
:102A6800005F06D0FEF7E0F8031B022BF5D9032020
:102A780070BD324B9A6A22F07C72296842EA015290
:102A88009A626A68013AC2F30802A96801394902E0
:102A980089B20A43E9680139090401F4FE010A43CD
:102AA80029690139090601F0FE410A431A64DA6A04
:102AB80022F4406269690A43DA62DA6A22F400722F
:102AC800A9690A43DA62DA6A22F48072DA62596C16
:102AD8001B4A0A40E96942EAC1025A64DA6A42F4C6
:102AE8008072DA62C6B91A46DB6A43F48003D3629D
:102AF800124A136843F080531360FEF795F80446B2
:102B08000E4B1B6813F0005F14D1FEF78DF8001B05
:102B18000228F5D90320ABE7012E05D0074AD36A6E
:102B280043F08073D362E3E7044AD36A43F40003B3
:102B3800D362DDE700209BE701207047004402587C
:102B48000700FFFFF8B50446036813F0006F30D0A4
:102B5800836EB3F5001F26D00ED8EBB1B3F5801FF6
:102B680007D102210830FFF7E1FE054645B12E46A0
:102B780021E0012635461EE0B3F5401F09D10025A6
:102B8800984A136D23F44013A16E0B431365002676
:102B980011E0012635460EE0924AD36A43F4003329
:102BA800D3620025ECE702212830FFF745FF0546F0
:102BB800DCE700263546236813F4807F14D0A36D24
:102BC800042B32D8DFE803F003232A080800854ADB
:102BD800D36A43F40033D36255BB824A136D23F0A2
:102BE8000703A16D0B431365236813F4007F31D0ED
:102BF800E36D802B4CD020D8002B43D0402B19D12B
:102C0800002104F10800FFF791FE05461AE00021B3
:102C180004F10800FFF78AFE0546DDE7002104F10C
:102C28002800FFF709FF0546D6E701263546DBE70A
:102C38002E46D9E7012635460CE0C02B02D0B3F565
:102C4800807F1CD15DBB674A136D23F4E073E16D8F
:102C58000B431365236813F4806F46D0D4F8A8306B
:102C6800B3F5800F39D01FD88BB3B3F5001F18D137
:102C7800002104F10800FFF759FE05461AE0012675
:102C88003546E7E7574AD36A43F40033D362D9E7B6
:102C9800002104F12800FFF7CFFE0546D2E72E46B3
:102CA800D8E70126354620E0B3F5C00F02D0B3F5CA
:102CB800000F09D1C5B94B4A936D23F46003D4F8CA
:102CC800A8100B43936510E0012635460DE0454AF0
:102CD800D36A43F40033D362ECE7002104F12800FF
:102CE800FFF7AAFE0546E5E72E46236813F4006FB2
:102CF80024D0D4F8AC30B3F1007F42D00ED8002BEA
:102D080039D0B3F1807F06D1002104F10800FFF724
:102D18000DFE054608E0012635460FE0B3F1407F79
:102D280002D0B3F1806F23D1002D31D12D4A936D9C
:102D380023F0E063D4F8AC100B439365236813F0D9
:102D4800007F2ED0E36C202B40D026D833B1102B37
:102D580020D1244AD36A43F40033D362002D3CD1F6
:102D6800204AD36C23F03003E16C0B43D36418E0A2
:102D780001263546E2E71B4AD36A43F40033D3629F
:102D8800D2E7002104F12800FFF756FE0546CBE7FD
:102D98002E46D3E70126354603E0302BDED0012648
:102DA8003546236813F4805F2DD0236EB3F5005F9A
:102DB8004FD019D8002B46D0B3F5805F0FD1002132
:102DC80004F10800FFF7B2FD054613E0022104F103
:102DD8000800FFF7ABFD0546C0E72E46E1E70126F0
:102DE800354610E000440258B3F5405F02D0B3F511
:102DF800804F25D1002D33D1774A136D23F4E0435A
:102E0800216E0B431365236813F4005F38D0636E9B
:102E1800B3F5003F53D028D843B1B3F5803F21D153
:102E2800012104F10800FFF781FD0546002D4DD171
:102E3800694A136D23F4E023616E0B4313651FE0A9
:102E480001263546DFE7644AD36A43F40033D36288
:102E5800D0E7002104F12800FFF7EEFD0546C9E799
:102E68002E46D0E7012635460AE0B3F5802FDDD09F
:102E7800B3F5A02FDAD0B3F5403FD7D001263546B9
:102E8800236813F4804F31D0D4F8B030B3F1005F29
:102E980045D020D843B1B3F1805F19D1012104F1A5
:102EA8000800FFF743FD0546002D3FD14A4A936DC0
:102EB80023F0E043D4F8B0100B43936516E00121EA
:102EC80004F12800FFF7B8FD0546AFE72E46D7E71F
:102ED800012635460AE0B3F1804FE5D0B3F1A04FA3
:102EE800E2D0B3F1405FDFD001263546236813F402
:102EF800004F09D0236FB3F1805F19D0B3F1005FA1
:102F080024D0D3B101263546236813F0807F33D00F
:102F1800A36C032B5BD8DFE803F02722532701219A
:102F280004F12800FFF788FD0546BDE72E46DDE7DA
:102F3800294AD36A43F40033D36275B9264A136D1C
:102F480023F04053216F0B431365DDE7012104F1A2
:102F58000800FFF7EBFC0546EFE72E46D4E71E4ACC
:102F6800D36A43F40033D362A5BB1B4AD36C23F066
:102F78000303A16C0B43D364236813F4800F2DD192
:102F8800236813F0010F00F0A580E36F282B00F2EF
:102F98009F80DFE803F08D9D9D9D9D9D9D9D879D54
:102FA8009D9D9D9D9D9D969D9D9D9D9D9D9D8D9D60
:102FB8009D9D9D9D9D9D8D9D9D9D9D9D9D9D8D00F6
:102FC800022104F10800FFF7B1FC0546CCE7012611
:102FD8003546D1E72E46CFE700440258914A136898
:102FE80043F480731360FDF71FFE07468D4B1B6883
:102FF80013F4807F05D1FDF717FEC01B6428F5D9AF
:103008000325002D4AD1884B1B6FD4F8B4205340B8
:1030180013F4407F0CD0844B1A6F22F44072196F5E
:1030280041F480311967196F21F4803119671A67E3
:10303800D4F8B430B3F5807F15D08DBBD4F8B43054
:1030480003F44072B2F5407F1ED0774A136923F427
:103058007C53136174490B6FD4F8B420C2F30B028C
:1030680013430B678CE7FDF7DFFD07466E4B1B6FBD
:1030780013F0020FE1D1FDF7D7FDC01B41F28833F1
:103088009842F3D90325D8E76748026922F47C52AD
:10309800664901EA131313430361DBE72E466FE722
:1030A8002E466DE7012104F10800FFF73FFC0546B5
:1030B800E5B95D4A536D23F03803E16F0B4353655F
:1030C80008E0012104F12800FFF7B6FC0546EFE708
:1030D80001263546236813F0020F17D0A36F052B7E
:1030E80028D8DFE803F00B05200B0B0B2E46F1E781
:1030F800012104F10800FFF719FC0546EDB94A4A19
:10310800536D23F00703A16F0B435365236813F036
:10311800040F23D0D4F89430052B45D8DFE803F00A
:10312800150F3D151515012104F12800FFF784FC42
:103138000546E3E701263546E8E72E46E6E701219E
:1031480004F10800FFF7F2FB054685BB364A936D8C
:1031580023F00703D4F894100B439365236813F006
:10316800200F34D0D4F89030B3F1005F4ED023D87C
:1031780043B1B3F1805F1CD1002104F10800FFF7CF
:10318800D5FB0546002D48D1274A536D23F0E0436F
:10319800D4F890100B43536519E0012104F128007D
:1031A800FFF74AFC0546D0E701263546D6E72E4606
:1031B800D4E7012635460AE0B3F1804FE2D0B3F1F7
:1031C800A04FDFD0B3F1405FDCD00126354623683D
:1031D80013F0400F37D0D4F89C30B3F5006F53D0BC
:1031E80026D843B1B3F5806F19D1002104F1080046
:1031F800FFF79CFB0546002D4DD10B4A936D23F438
:10320800E053D4F89C100B4393651CE0022104F1B1
:103218002800FFF711FC0546B4E72E46D7E701263C
:10322800354610E00048025800440258CFFFFF001E
:10323800B3F5805FDFD0B3F5A05FDCD0B3F5406FA6
:10324800D9D001263546236813F0800F33D0D4F83F
:10325800A030B3F5804F00F0A38021D843B1B3F577
:10326800005F1AD1002104F10800FFF75FFB054653
:10327800002D40F09C80814A936D23F46043D4F87C
:10328800A0100B43936516E0022104F12800FFF714
:10329800D3FB0546AFE72E46D5E7012635460AE0BB
:1032A800B3F5004FE4D0B3F5204FE1D0B3F5C04FEC
:1032B800DED001263546236813F0080F0CD0D4F869
:1032C8008430B3F5805F74D06C4A536D23F4405357
:1032D800D4F884100B435365236813F0100F0CD0F7
:1032E800D4F89830B3F5807F6CD0644A936D23F49A
:1032F8004073D4F898100B439365236813F4002F98
:103308000BD0D4F8A430B3F5803F74D0B3F5003FA8
:1033180067D0002B5FD001263546236813F4802F31
:103328000CD0D4F88830B3F5001F7CD0B3F5401F1B
:103338006FD0B3F5801F67D001263546236813F494
:10334800803F08D0236D002B76D0B3F5803F00F086
:10335800818001263546236813F0005F40F08380A2
:10336800236813F4003F00F08E80D4F88030B3F562
:10337800807F00F0EC8040F28380B3F5007F03D0BB
:10338800B3F5407F40F0E180002D40F0E6803B4AF5
:10339800536D23F44073D4F880100B43536572E0E7
:1033A800022104F12800FFF747FB054660E72E4697
:1033B80081E7022104F12800FFF73EFB002883D0B3
:1033C800012681E7022104F12800FFF735FB0028D8
:1033D8008BD0012689E7002104F10800FFF7A6FA3F
:1033E80005467DB9254A936D23F44033D4F8A410DB
:1033F8000B43936591E7022104F12800FFF71CFBBA
:103408000546EEE72E4688E71C4AD36A43F40033A4
:10341800D3627DB9194A536D23F44013D4F8881048
:103428000B4353658AE7012104F12800FFF704FBE9
:103438000546EEE72E4681E7104AD36A43F4003387
:10344800D36275B90D4AD36C23F48033216D0B43D5
:10345800D36480E7022104F10800FFF767FA054604
:10346800EFE72E4677E7022104F12800FFF7E4FA98
:1034780000283FF475AF012672E700BF00440258E8
:10348800002B81D00126236813F4801F06D04F4AF1
:10349800136D23F00043616F0B431365236813F02A
:1034A800805F07D0494A136923F48043D4F8B810E1
:1034B8000B431361236813F4001F06D0434A136DAE
:1034C80023F08073E16E0B431365236813F0804F7C
:1034D80009D03E4B1A6922F400421A611A69D4F8DD
:1034E800BC100A431A612368002B06DA374AD36CEA
:1034F80023F04053616D0B43D364236813F4000F2A
:1035080007D0324A536D23F44003D4F88C100B4390
:103518005365636813F0010F21D1636813F0020F3C
:1035280026D1636813F0040F2BD1636813F0080FDA
:1035380030D1636813F0100F35D1636813F0200F92
:103548003AD106B101263046F8BD01269BE71F4A4D
:10355800D36A43F40033D36216E72E4693E700217B
:1035680004F10800FFF7E2F90028D6D00646D4E7B0
:10357800012104F10800FFF7D9F90028D1D0064647
:10358800CFE7022104F10800FFF7D0F90028CCD0DA
:103598000646CAE7002104F12800FFF74DFA002883
:1035A800C7D00646C5E7012104F12800FFF744FA11
:1035B8000028C2D00646C0E7022104F12800FFF720
:1035C8003BFA0028BDD00646BBE700BF00440258BE
:1035D80082B000230193019B01330193019A0F4BA1
:1035E8009A4215D80369002BF5DA00230193036981
:1035F80043F001030361019B01330193019A074BD7
:103608009A4208D8036913F0010FF4D1002000E0B2
:10361800032002B070470320FBE700BF400D030002
:1036280084B010B5044603A880E80E00089B012B5F
:103638001DD1A36B23F48033A363E2681D4B1340B1
:10364800E360E36823F44013E3600F9B012B09D088
:103658002046FFF7BDFF059B012B1BD0BDE810409E
:1036680004B07047E36843F48013E360F0E7E3686D
:1036780043F04003E3602046FFF7AAFF0C9B23B901
:10368800A36B43F48033A363E5E7A36B23F4803390
:10369800A363E0E7E36D9BB2E365E26D064B13437A
:1036A800E365A36843F00603A360A36843F020031F
:1036B800A360D3E7BFFFBDFF0000EE03022A0AD0D4
:1036C8000921C26822F47052C260C36843EA8123A8
:1036D800C36000207047204B0B44204A934229D9ED
:1036E8001F4B0B441F4A934226D91F4B0B441F4ABA
:1036F800934223D91E4B0B441E4A934220D31E4BA0
:103708000B441E4A93421DD91D4B0B441D4A93423C
:103718001AD31D4B0B441D4A934217D31C4B0B4421
:103728001C4A934214D31C4B0B441C4A934211D29B
:103738000721C6E70F21C4E70E21C2E70D21C0E724
:103748000C21BEE70B21BCE70A21BAE70921B8E73B
:103758000821B6E70621B4E7405327FFFF340C00E1
:10376800401E1BFF3F420F0000DC0BFF7F4F120083
:10377800808CF9FE20D6130060B6E5FE5FE31600E4
:1037880000D3CEFE40771B00C05BB3FEC091210082
:1037980000CA91FE20753800E05459FEE09C4100B3
:1037A800836843F00103836000207047836823F037
:1037B800010383600020704782B000230193019BBE
:1037C80001330193019A0F4B9A4215D80369002BD4
:1037D800F5DA00230193890141F020010161019B81
:1037E80001330193019A074B9A4208D8036913F0F1
:1037F800200FF4D1002000E0032002B0704703201E
:10380800FBE700BF400D030082B000230193019B3A
:1038180001330193019A0E4B9A4213D80369002B86
:10382800F5DA0023019310230361019B013301930F
:10383800019A074B9A4208D8036913F0100FF4D184
:10384800002000E0032002B070470320FBE700BF20
:10385800400D0300D0F800381943C0F800180020C4
:103868007047000084B02DE9F041044607A880E8BD
:103878000E00002306E003F1400204EB820200215F
:10388800516001330E2BF6D9119F27BBD4F80438A9
:1038980043F00203C4F80438A36B23F40013A363B2
:1038A800236843F040032360236843F080032360C8
:1038B8000023C4F8003E04F50065D4F80038C4F8C5
:1038C80000380C9B012B10D10A9B4BB900212046D4
:1038D800FFF7C0FF0DE0A36B43F40013A363E7E712
:1038E80001212046FFF7B6FF03E003212046FFF73A
:1038F800B1FF10212046FFF75FFF804608B14FF067
:1039080001082046FFF780FF08B14FF001080023A7
:103918002B616B61EB610AE0C3B94FF00060C2F83C
:10392800000900220A614FF67F328A600133079945
:10393800994210D904EB431202F51061D2F800093C
:103948000028E9DB0020C2F80009EAE74FF09040C0
:10395800C2F80009E5E700230AE0C3B14FF0904C34
:10396800C2F800CB002202614FF67F328260013339
:10397800994211D904EB431202F53060D2F8006B7A
:10398800002EEADB4FF0000CC2F800CBEAE74FF05C
:10399800006CC2F800CBE5E72B6923F480732B6138
:1039A8000023A3616FF080436361099B1BB9A3697E
:1039B80043F01003A361A2690A4B1343A3610D9B53
:1039C8001BB1A36943F00803A361012F04D040464B
:1039D800BDE8F04104B07047A269034B1343A361EB
:1039E800F5E700BF00383C8004000040D0F80838F4
:1039F80013F0060305D0062B18BF022B03D10220B3
:103A08007047002070470F207047000010B591F8EC
:103A180000C04B78012B21D000F5006ED0F81C387F
:103A28000CF00F040122A24043EA0243C0F81C38FC
:103A380000EB4C10D0F8003B13F4004F0CD1D0F839
:103A4800002B8B68C3F30A03097943EA81431343C4
:103A5800144A1A43C0F8002B002010BDD0F81C28C7
:103A68000CF00F0E03FA0EF39BB21343C0F81C3888
:103A780000EB4C10D0F8003913F4004FECD1D0F81B
:103A880000298B68C3F30A03097943EA814343EAAF
:103A98008C5C42EA0C0C034B4CEA0303C0F8003977
:103AA800DAE700BF0080001030B40B784A78012AAA
:103AB80026D000EB4313D3F8002B002A52DBD0F8B2
:103AC8003C480A7802F00F024FF0010C0CFA02F29F
:103AD80024EA0242C0F83C28D0F81C28097801F0F2
:103AE8000F010CFA01FC22EA0C42C0F81C28D3F89A
:103AF800001B234A0A40C3F8002B002030BC704743
:103B080000EB4313D3F80029002A1EDBD0F83C58F9
:103B18000A7802F00F02012404FA02F292B225EAAE
:103B28000202C0F83C28D0F81C28097801F00F01DF
:103B38008C40A4B222EA0404C0F81C48D3F8001947
:103B4800104A0A40C3F80029D7E7D3F8002942F001
:103B58000062C3F80029D3F8002942F08042C3F874
:103B68000029D3E7D3F8002B42F00062C3F8002BFA
:103B7800D3F8002B42F08042C3F8002B9FE700BF28
:103B88000078F3EF007833EC10B483B002460023DA
:103B98000193487801280AD00B7802EB4313D3F835
:103BA800000B00282CDB002003B010BC70470B78FA
:103BB80002EB4313D3F80049002C01DB0020F3E7A4
:103BC800D3F8004944F00064C3F800490B7802EBCD
:103BD8004313D3F8004944F08044C3F80049019BDB
:103BE80001330193019C42F210739C42DCD80B789C
:103BF80002EB4313D3F80039002BF0DB0020D3E7A6
:103C0800D3F8000B40F00060C3F8000B0B7802EB10
:103C18004313D3F8000B40F08040C3F8000B019B1E
:103C280001330193019842F21073984208D80B7837
:103C380002EB4313D3F8003B002BF0DB0020B3E783
:103C48000120B1E710B59DF8084084B903334FEA65
:103C5800930E4FF0000C08E000EB023303F580539D
:103C680051F8044B1C600CF1010CF445F4D300200E
:103C780010BD0000F0B583B00C784B78012B2DD027
:103C880000EB441C0CF530631E69864D35401D6100
:103C98001E69854D35401D61002C40F0C7800C69B8
:103CA8000CB18C680C618C680C621D69C4F3120439
:103CB8002C431C611C6944F400241C61012A00F097
:103CC800D8800B79012B00F0DA80DCF8003B43F058
:103CD8000443CCF8003B002003B0F0BD0B6973BB74
:103CE80000EB4413D3F810696F4D3540C3F81059F1
:103CF800D3F8105945F40025C3F81059D3F81069C2
:103D0800684D3540C3F81059012A4DD000EB4414D2
:103D1800D4F8003943F00443C4F800390B79012B77
:103D28006BD00B69002BD6D0D0F834380A7802F063
:103D38000F0101228A401343C0F83438CBE700EB67
:103D4800441303F510631E69564D35401D611E6905
:103D5800554D35401D61D4B90E698D68AE4200D904
:103D68000D611D6945F400251D611D690E69C6F3C5
:103D7800120635431D610D79012DC5D11D6925F048
:103D8800C0451D611D6945F000551D61BCE71E69F0
:103D98000D698F683D44013DB5FBF7F5434F07EAD0
:103DA800C54535431D61E0E7CB691BB100EB441203
:103DB800C2F814390B79012B08D000EB4410D0F865
:103DC800003943F00443C0F8003984E7D0F80838D4
:103DD80013F4807F08D100EB4412D2F8003943F085
:103DE8000053C2F80039E8E700EB4412D2F8003972
:103DF80043F08053C2F80039DFE7D0F8083813F4ED
:103E0800807F0CD1D4F8003943F00053C4F800394E
:103E180000920B8A0A78C968FFF714FF5BE7D4F8A9
:103E2800003943F08053C4F80039F1E70C6954B9FC
:103E38001C698D68C5F312052C431C611C6944F488
:103E480000241C613AE78D682C44013CB4FBF5F46E
:103E5800A4B204FB05F50D621D69144E06EAC444BC
:103E68002C431C611C690D6AC5F312052C431C61A7
:103E780024E7CA68002A3FF424AF5A6121E7D0F842
:103E8800083813F4807F06D1DCF8003B43F0005378
:103E9800CCF8003B19E7DCF8003B43F08053CCF842
:103EA800003B12E70000F8FFFFFF07E00000F81FE3
:103EB80000B583B0844608464FEA920E02F003022A
:103EC800002305E00CF58051096840F8041B013314
:103ED8007345F7D39AB10CF5805CDCF80030019398
:103EE8004FF0000C5FFA8CF3D900019BCB4000F82F
:103EF800013B0CF1010C013A92B2002AF2D103B055
:103F08005DF804FB0B784A78012A14D000EB4310C3
:103F1800D0F8002B002A06DB2BB1D0F8003B23F0A9
:103F28008043C0F8003BD0F8003B43F40013C0F8CE
:103F3800003B0020704700EB4310D0F80029002A0E
:103F480006DB2BB1D0F8003923F08043C0F80039E4
:103F5800D0F8003943F40013C0F80039E9E70B78CA
:103F68004A78012A0ED000EB4310D0F8003B23F426
:103F78000013C0F8003B0B79023BDBB2012B15D9CB
:103F88000020704700EB4310D0F8003923F40013E9
:103F9800C0F800390B79023BDBB2012BF0D8D0F81E
:103FA800003943F08053C0F80039E9E7D0F8003B06
:103FB80043F08053C0F8003BE2E7D0F8003823F420
:103FC800FE63C0F80038D0F80038090101F4FE613A
:103FD8001943C0F8001800207047D0F8003E23F0BD
:103FE8000303C0F8003ED0F8043823F00203C0F8F9
:103FF800043800207047D0F8003E23F00303C0F8CF
:10400800003ED0F8043843F00203C0F8043800201A
:1040180070474269806910407047D0F8183800F539
:104028000060C0691840000C7047D0F8183800F5D7
:104038000060C069184080B2704700EB4111D1F8A8
:10404800082B00F5006040691040704710B4D0F8A4
:104058001048D0F8343801F00F02D340DB01DBB24E
:10406800234300EB411000F510608068184010BC35
:104078007047406900F00100704738B50546C368CD
:1040880023F0C043C360012913D019BBC36843F0B0
:104098008043C36000240120FCF7CCFD013428468E
:1040A800FFF7E7FF08B1312CF5D9322C14D00020E6
:1040B80038BDC36843F00053C36000240120FCF7F7
:1040C800B9FD01342846FFF7D4FF0128EDD0312C83
:1040D800F4D9EAE70120EBE70120E9E7D0F8002965
:1040E800054B1340C0F80039D0F8043843F4807306
:1040F800C0F804380020704700F8FFFF10B4046CC3
:10410800144B9C4203D9D0F8003B002B16DB00244B
:10411800C0F8104BD0F8104B44F40024C0F8104BF2
:10412800D0F8104B44F01804C0F8104BD0F8104BDE
:1041380044F0C044C0F8104B012902D0002010BC44
:104148007047C0F8142BD0F8003B43F08023C0F828
:10415800003BF3E70A30544FD0F8D432B03350F86C
:1041680023300020187370470A23038000487047E3
:10417800B800002410B504468121054800F010FB62
:1041880008B10A22827122232380014810BD00BF92
:104198008800002410B504468121054800F000FB82
:1041A80008B10A22827122232380014810BD00BF72
:1041B8008800002410B504468121054800F0F0FA73
:1041C80008B10722827122232380014810BD00BF55
:1041D8008800002430B583B0D0F8D432B03350F81A
:1041E80023300022ADF80620002B00F082800C78E6
:1041F80014F0600425D0202C75D14A78023A092A97
:104208001BD8DFE802F014091A1A1A1A1A1A0F052D
:104218008A781A60002469E00122194600F083FEBA
:10422800002463E04A88120A5A6000245EE00122F2
:10423800191D00F078FE002458E000F0EEFA03247F
:1042480054E04D780B2D4AD8DFE805F0065049496F
:104258004949164949492E3D90F89C32DBB2032B57
:1042680003D000F0DAFA032440E002220DF106013F
:1042780000F059FE2C4639E04B881B0A222B09D046
:10428800212B0DD1CA88092A28BF09221A4900F012
:104298004AFE2BE0CA883F2A28BF3F221749F6E783
:1042A80000F0BBFA032421E090F89C22D2B2032A42
:1042B80003D000F0B2FA032418E0012203F1080148
:1042C80000F031FE12E090F89C22D2B2032A02D10B
:1042D8008A789A600AE000F0A0FA032406E000F069
:1042E8009CFA032402E000F098FA0324204603B065
:1042F80030BD0324FAE700BFAC00002410000024FE
:1043080010B50446812101F039F80023238763871B
:10431800D4F8D432B03354F8230038B101F010F88F
:10432800D4F8D432B033002244F82320002010BD42
:1043380038B50446102000F0FFFFB0B10546D4F8A8
:10434800D432B03344F82300C4F8BC02237CA3B9A8
:1043580007236387082303228121204601F003F8FD
:10436800012323870020287338BDD4F8D432B03312
:10437800002244F823200220F6E70A236387E9E7AE
:1043880010B5D0F8D43203F1B00C50F82C30BBB1D2
:1043980090F89CC25FFA8CFCBCF1030F02D0002499
:1043A800204610BD1C7B0CB10024F9E74FF0010C2E
:1043B80083F80CC013460A46812100F0FFFFEFE79F
:1043C8000324EDE798B108B503460020C3F8B80206
:1043D800C3F8C402C3F8D00209B1C3F8B41201216A
:1043E80083F89C121A70184600F058FF08BD032085
:1043F800704710B582B00023ADF8063089B1044685
:10440800C0F8B812CB6A23B10DF106009847C4F87A
:10441800D002D4F8D8320133C4F8D832002002B020
:1044280010BD0320FBE708B500F095FF08BD08B5EF
:10443800D0F8B83213B11B68984708BD0020FCE7D4
:1044480008B5D0F8B8325B68984700B908BD0320B2
:10445800FCE738B5044600F2AA25284600F0C9F959
:104468000123C4F89432B4F8B032C4F8983294F8FE
:10447800AA1201F01F03012B0DD0022B10D02BB173
:1044880001F08001204600F081FF03E02946204624
:1044980000F096FB38BD2946204600F0CCFBF9E732
:1044A8002946204600F009FCF4E7F8B50446012344
:1044B80080F89C320023C0F894324360C0F8A432DC
:1044C80080F8A032D0F8B832DBB15B68DBB10021EC
:1044D80098470746C8B9402300221146204600F0F5
:1044E80042FF0126A4F864614025C4F860512B46B8
:1044F80000228021204600F036FFA6842562384637
:10450800F8BD0027E7E70027E5E70327E3E701749D
:104518000020704790F89C32DBB2042B04D090F84E
:104528009C32DBB280F89D32042380F89C32002054
:10453800704790F89C32DBB2042B01D00020704702
:1045480090F89D32DBB280F89C32F7E708B590F816
:104558009C32DBB2032B01D0002008BDD0F8B83262
:10456800002BF9D0DB69002BF6D09847F4E708B5A3
:10457800D0F8D432AE3350F823205AB190F89C3298
:10458800DBB2032B01D0002008BD136A23B1984782
:104598000020F9E70320F7E70020F5E708B5D0F891
:1045A800D432AE3350F823205AB190F89C32DBB2A3
:1045B800032B01D0002008BD536A23B1984700207F
:1045C800F9E70320F7E70020F5E70020704708B572
:1045D800012380F89C32D0F8B83223B15B680179A6
:1045E800984710B908BD0020FCE70320FAE700202F
:1045F80070470020704738B504460D46002943D15E
:104608001346D0F89422032A01D0084638BDD0F8C2
:104618005C11D0F86021914212D890F8AA3203F0C8
:104628001F03012B17D0022B1CD0284694F89C326C
:10463800DBB2032B1BD0204600F092FC2846E5E7AE
:10464800891AC0F85C118A4228BF0A46194600F048
:104658007FFC2846DAE790F8AE12FFF7C8FF00287B
:10466800E9D1E3E790F8AE12FFF7C3FFF7E700F1EF
:10467800AE0354F823301A69002ADCD0C4F8D402F7
:104688001B6920469847D6E701F07F01FFF7B1FF85
:1046980090B994F89C32DBB2032BB7D100F1AE038A
:1046A80054F823309A69002AB0D0C4F8D4029B6920
:1046B800294620469847A9E70020A7E738B50446C9
:1046C8000D4600294BD11346D0F89422022A07D070
:1046D80094F8A00218B1002384F8A032284638BD07
:1046E800C269016A8A420ED88A4218D094F89C326C
:1046F800DBB2032B27D08021204600F047FE20465E
:1047080000F039FCE4E7521AC261194600F018FCBF
:1047180000231A461946204600F058FED8E7836958
:104728009942E3D8D0F898229342DFD2002211466A
:1047380000F006FC0021C4F898120B460A462046F1
:1047480000F044FEC4E7D4F8B832DA68002AD2D0C0
:104758000022C4F8D422DB6820469847CBE741F012
:104768008001FFF746FF90B994F89C32DBB2032B27
:10477800B5D100F1AE0354F823305A69002AAED0FF
:10478800C4F8D4025B69294620469847A7E7002069
:10479800A5E703780A8813440B8003781844704708
:1047A800428803789A4218D930B583B004460D463A
:1047B800ADF806306288BDF806309A420AD90DF184
:1047C8000601FFF7E6FF4378052BF3D18378AB4268
:1047D800F0D100E0002003B030BD00207047034650
:1047E800002002E00130C0B201331A78002AF9D162
:1047F80070470B7803704B7843708B78CA7843EA1C
:10480800022343800B794A7943EA022383808B7918
:10481800CA7943EA0223C380704710B50446802151
:1048280000F0B4FD0021204600F0B0FD10BD30B509
:1048380083B004460D460023ADF806304A88130AB3
:10484800013B0E2B00F2BC80DFE803F0153044BAC0
:10485800BA9EABBABABABABABABA0800D0F8B43281
:10486800DB6923B10DF10601007C98470AE029466F
:10487800FFF7D3FF18E0D0F8B4321B680DF106013A
:10488800007C9847EA88002A00F0A380BDF806302B
:10489800002B00F099809A4228BF1A46ADF80620EE
:1048A8000146204600F03FFB03B030BD037C43B90E
:1048B800D0F8B8329B6A0DF106009847022343707E
:1048C800E0E7D0F8B832DB6A0DF10600984702231A
:1048D8004370D7E7D2B2052A52D8DFE802F00310B6
:1048E8001D2A3744D0F8B4325B6823B10DF10601B4
:1048F800007C9847C6E72946FFF78FFFD4E7D0F832
:10490800B4329B6823B10DF10601007C9847B9E7E2
:104918002946FFF782FFC7E7D0F8B432DB6823B136
:104928000DF10601007C9847ACE72946FFF775FFB3
:10493800BAE7D0F8B4321B6923B10DF10601007C47
:1049480098479FE72946FFF768FFADE7D0F8B432EC
:104958005B6923B10DF10601007C984792E729466F
:10496800FFF75BFFA0E7D0F8B4329B6923B10DF1E4
:104978000601007C984785E72946FFF74EFF93E735
:104988002946FFF74AFF8FE7037C33B9D0F8B832DE
:104998005B6B0DF10600984774E72946FFF73DFF6A
:1049A80082E7037C43B9D0F8B8321B6B0DF10600DF
:1049B80098470723437065E72946FFF72EFF73E7FB
:1049C8002946FFF72AFF6FE729462046FFF725FF0C
:1049D8006AE7204600F0C4FA66E738B504468B88D3
:1049E800FBB9CB88EBB94B887F2B1AD803F07F052E
:1049F80090F89C32DBB2032B0CD080F89E522946EB
:104A080000F0D4FC204600F0ABFA35B1022384F85C
:104A18009C3209E0FFF701FF06E0012384F89C328D
:104A280002E02046FFF7F9FE38BD000070B50446E5
:104A38000E468D782F4B1D70012D10D890F89C32A2
:104A4800DBB2022B0FD0032B26D0FFF7E6FE294B53
:104A580019782046FFF7F4FC0325284670BDFFF7B8
:104A6800DCFE0325F9E7A5B145602946FFF7DFFC21
:104A7800054638B131462046FFF7CFFE022384F8B9
:104A88009C32EAE7204600F06BFA032384F89C3254
:104A9800E3E700F065FAE0E7CDB141688D4225D043
:104AA800C9B2FFF7CDFC134B197861602046FFF7B8
:104AB800BEFC0546B0B131462046FFF7AEFE21796F
:104AC8002046FFF7BDFC022384F89C32C5E7022389
:104AD80080F89C3245602946FFF7B2FC204600F07A
:104AE8003FFABAE7204600F03BFAB6E700F038FA9A
:104AF8000025B2E76405002408B5CB88012B0BD14B
:104B080090F89C32DBB2022B09D9032B09D1012280
:104B1800011D00F008FA01E0FFF77FFE08BD5BB257
:104B280013B9FFF77AFEF9E70146002341F8083F79
:104B3800012200F0F8F9F1E708B590F89C32013B42
:104B4800022B12D8CB88022B0CD10123C360D0F8DA
:104B5800A4320BB10323C360022200F10C0100F060
:104B6800E2F908BDFFF759FEFBE7FFF756FEF8E745
:104B780008B54B88012B04D0022B07D0FFF74DFE58
:104B880008BDC0F8A43200F0EBF9F9E78B881B0ADE
:104B980080F8A03200F0E4F9F2E708B590F89C320A
:104BA800013B022B09D84B88012B00D008BD0023FC
:104BB800C0F8A43200F0D4F9F8E7FFF72EFEF5E7C5
:104BC80038B50C7804F06004202C06D0402C04D0B2
:104BD8006CB1FFF722FE002407E0D0F8D432AE33E0
:104BE80050F823309B6898470446204638BD4D78D6
:104BF800092D1DD8DFE805F012191C161C08051C24
:104C08000F0BFFF714FEF0E7FFF7E7FEEDE7FFF7FE
:104C18000DFF0446E9E7FFF76FFFE6E7FFF78CFFB4
:104C28002C46E2E7FFF7A4FFDFE7FFF7B6FFDCE774
:104C3800FFF7F3FDD9E770B505460C460B7803F08E
:104C48006003202B07D0402B05D023B1FFF7E5FDEB
:104C58000026304670BD95F89C32013B022B26D8C1
:104C68002179012905D921462846FFF7D6FD0026D6
:104C7800EFE72846FFF7BBFC68B900F1AE0255F82C
:104C88002220916889B1C5F8D40293682146284644
:104C98009847064600E00326E388002BD9D1002E6A
:104CA800D7D1284600F05CF9D3E70326F4E721467C
:104CB8002846FFF7B2FD0026CBE72DE9F04106466E
:104CC8000D468B88DFB20C7804F06004202C08D0E5
:104CD800402C06D0DCB1FFF7A0FD00242046BDE83B
:104CE800F08139463046FFF784FC0446002840F03E
:104CF800F980C6F8D40200F1AE0356F823309B6859
:104D0800002BEBD02946304698470446E6E791F851
:104D18000180B8F1010F31D0B8F1030F05D0B8F117
:104D2800000F66D0FFF779FDD8E790F89C32DBB228
:104D3800022B04D0032B11D0FFF76FFDCEE7002F15
:104D480018BF802F07D0394600F020FB802130465D
:104D580000F01CFBC2E7FFF760FDBFE74B882BB9EB
:104D6800002F18BF802F01D0CB881BB1304600F030
:104D7800F7F8B3E7394600F009FBF7E790F89C32FB
:104D8800DBB2022B04D0032B11D0FFF746FDA5E7B9
:104D9800002F18BF802F07D0394600F0F7FA80217E
:104DA800304600F0F3FA99E7FFF737FD96E74B88AE
:104DB800002B93D117F07F0F17D1304600F0D0F8B1
:104DC80039463046FFF715FC002887D1C6F8D402CB
:104DD80000F1AE0256F822209268002A00F0848082
:104DE800294630469047044678E7394600F0D6FA17
:104DF800E3E790F89C22D2B2022A05D0032A28D0F1
:104E0800FFF70BFD444669E7002F18BF802F13D129
:104E180013F0800F14D107F07F0707EB8707B9005D
:104E280001F5A8710144043100230B6002223046C9
:104E380000F079F8444651E7FFF7EFFC44464DE7A8
:104E480007F07F0707EB8707B900103101440431E9
:104E5800EAE75BB2002B20DB07F00F0202EB8202CD
:104E680000EB8202B2F8642122B3002B26DB07F0A4
:104E78007F0303EB83039C0004F5A87434440434D3
:104E8800802F18BF002F22D1002323600222214641
:104E9800304600F048F8444620E707F00F0202EBDE
:104EA800820200EB8202928C002ADED1FFF7B5FC69
:104EB800444613E7FFF7B1FC44460FE707F07F03CA
:104EC80003EB83039C00103434440434D8E7394698
:104ED800304600F019FA10B101232360D6E7002309
:104EE8002360D3E70024F9E60446F7E6D0B170B5AD
:104EF8000D4616460446FFF772FC431C5B009BB246
:104F080033802B7003236B70022307E0EA540134CB
:104F18005A1CD2B20021A9540233DBB22278002AEB
:104F2800F4D170BD704708B513460222C0F8942228
:104F38008361C3610A46002100F040FA002008BDE1
:104F480008B513460A46002100F038FA002008BDCB
:104F580008B513460A46002100F038FA002008BDBB
:104F680008B50422C0F8942200231A46194600F016
:104F780025FA002008BD08B50522C0F894220023B0
:104F88001A46194600F022FA002008BD08B500228A
:104F98000C490D48FFF716FA58B90C490A48FFF7AB
:104FA80028FA48B90848FFF73EFA40B9FCF7E4FE8A
:104FB80008BDFBF764FCF0E7FBF761FCF2E7FBF7E1
:104FC8005EFCF3E7C40000246805002450000024B8
:104FD80012230B8000487047E400002404230B8050
:104FE80000487047F8000024002393421ED200B501
:104FF80010E00CF1370C01F813C000014FEA430C24
:105008000CF1010C4FF0000E01F80CE00133DBB29B
:10501800934209D24FEA107CB0F1204FE9D20CF14B
:10502800300C01F813C0E8E75DF804FB7047000096
:1050380038B50B4BD3F80008D3F80448D3F8083830
:10504800C01800D138BD074D0822A91CFFF7CCFFB6
:10505800042205F112012046FFF7C6FFF2E700BF60
:1050680000E0F11FFC00002408B51A230B80FFF7AD
:10507800DFFF014808BD00BFFC00002408B50A4650
:1050880028B905490548FFF731FF034808BD02491B
:105098000248FFF72BFFF8E744080024E055000812
:1050A80010B50A46034C21460348FFF71FFF204668
:1050B80010BD00BF44080024EC55000808B50A4696
:1050C80028B905490548FFF711FF034808BD0249FB
:1050D8000248FFF70BFFF8E744080024F4550008DE
:1050E80008B50A4628B905490548FFF7FFFE0348F1
:1050F80008BD02490248FFF7F9FEF8E74408002412
:105108000056000830B5B9B00446002133913491F7
:10511800359136913791C02202A800F083F92268B0
:10512800224B9A4201D039B030BD4FF4802200237F
:10513800CDE902234FF48013249302A8FDF702FD62
:1051480088BBFCF719FE1A4CD4F8E03043F0010391
:10515800C4F8E030D4F8E03003F001030093009B7A
:105168004FF4C05333930223349300253595369575
:105178000A23379333A90F48FBF72EFED4F8D8300B
:1051880043F00063C4F8D830D4F8D83003F0006393
:105198000193019B2A4629466520FBF777FD652088
:1051A800FBF7AAFDBFE7FBF76AFBCAE70000084068
:1051B800004402580000025808B500F2C441D0F873
:1051C8000805FFF746F908BD08B501EBC10300EB78
:1051D8008303D3F88822D0F80805FFF70CFA08BD36
:1051E80008B501EBC10300EB83039A6CD0F80805FE
:1051F800FFF764FA08BD08B5D0F80805FFF7A6F967
:1052080008BD10B5044603693BB1022B01D1012149
:1052180004E0FBF734FB012100E00021D4F8080585
:10522800FFF775F9D4F80805FFF73FF910BD00003E
:1052380010B50446D0F80805FFF76CF92268D2F8D3
:10524800003E43F00103C2F8003E236A23B1034A3B
:10525800136943F00603136110BD00BF00ED00E0C1
:1052680008B5D0F80805FFF764F908BD08B5D0F807
:105278000805FFF793F908BD08B5D0F80805FFF74A
:1052880076F908BD08B5D0F80805FFF79EF908BDFE
:1052980008B5D0F80805FFF79AF908BD02780AB1F1
:1052A8000020704710B503461548C0F80835C3F804
:1052B800C802144B036009234360022202610023E1
:1052C800C3608261C361036243628362C362036332
:1052D800FBF705FF80B90A4C80212046FCF707FD43
:1052E800402200212046FCF7DDFC802201212046D7
:1052F800FCF7D8FC002010BDFBF7C1FAEBE700BFB4
:10530800440A002400000840D0F8C83211F0800F89
:1053180008D101F07F0101EBC10103EB810191F894
:105328007E02704701F07F0101EBC10103EB8101AF
:1053380091F83E007047000000487047500F002465
:105348007047032805D8DFE800F0050402050120AE
:1053580070470320704708B5D0F8C802FBF75DFF17
:10536800FFF7EFFF08BD08B594461A466346D0F824
:10537800C802FCF733F8FFF7E4FF08BD08B5D0F81A
:10538800C802FCF770F8FFF7DCFF08BD08B5D0F8D5
:10539800C802FCF7EBF8FFF7D4FF08BD08B5D0F852
:1053A800C802FCF727F9FFF7CCFF08BD08B5D0F80D
:1053B800C802FBF7FFFFFFF7C4FF08BD08B5D0F828
:1053C800C802FCF7AEF8FFF7BCFF08BD08B5D0F877
:1053D800C802FCF781F8FFF7B4FF08BD70B50D4EA1
:1053E8000D4D761BB61006D0002455F8043B013449
:1053F8009847A642F9D1094E094D761B00F0D4F81A
:10540800B61006D0002455F8043B01349847A6424C
:10541800F9D170BD14560008145600081C5600082F
:1054280014560008830730B548D0541E002A3FD0D0
:10543800CAB2034601E0013C3AD303F8012B9D07A9
:10544800F9D1032C2DD9CDB245EA05250F2C45EA13
:10545800054536D9A4F1100222F00F0C03F1200EF5
:10546800E6444FEA121C03F1100242E9045542E9EE
:10547800025510327245F8D10CF1010214F00C0FEC
:1054880003EB021204F00F0C13D0ACF1040323F069
:1054980003030433134442F8045B9342FBD10CF03A
:1054A80003042CB1CAB21C4403F8012B9C42FBD163
:1054B80030BD64461346002CF4D1F9E70346144680
:1054C800BFE71A46A446E0E7024B13B1024800F0D2
:1054D80005B8704700000000F15400080023014699
:1054E8001A46184600F01AB838B5084B084D5B1B29
:1054F8009C1007D0043B1D44013C55F804399847DB
:10550800002CF9D1BDE8384000F054B82056000806
:105518001C560008704700BF704700BF2DE9F047D0
:10552800DFF87CA00646DAF8000098460F46914658
:10553800FFF7F0FF1B4B1B68D3F8484124B365689D
:105548001F2D26DC5EB96B1C0235DAF8000063609B
:1055580044F82570FFF7E0FF0020BDE8F08704EB72
:1055680085010123C1F88890D4F88821AB401A43FB
:10557800022EC4F88821C1F80881E4D1D4F88C211E
:105588001343C4F88C31DEE703F5A674C3F8484129
:10559800D5E7DAF80000FFF7BFFF4FF0FF30DCE790
:1055A8004005002410560008F8B500BFF8BC08BC38
:1055B8009E467047F8B500BFF8BC08BC9E467047C9
:1055C80000000000000000000000000001020304C9
:1055D800010203040607080948324F4B6579626FD8
:1055E8006172640048324F4C74640000484944209A
:1055F800436F6E666967000048494420496E7465C8
:0C56080072666163650000001801002458
:08561400D1540008BD0200089A
:04561C0099020008E7
:105620000090D0030090D0030100000010000000A3
:1056300005010906A101050719E029E71500250163
:10564000750195088102950175088101950575011F
:105650000508190129059102950175039101950627
:105660007508150025650507190029658100C0002A
:105670003943000809430008DD410008000000002C
:105680000000000061410008000000000000000070
:105690000000000000000000BD4100089D4100081E
:1056A0007D4100087141000809022200010100E06B
:1056B0003209040000010301010009211101000168
:1056C000223F000705810308000A0000092111019B
:1056D0000001223F000000000A0600020000004016
:1056E00001000000D94F0008E54F0008A95000084C
:1056F0008550000871500008C5500008E9500008A6
:1057000000000000120100020000004083042B573B
:105710000002010203010000040309041A0300004F
:105720000000000000000000000000000000000079
:10573000000000000000000000000000040400243D
:105740006C040024D40400240000000000000000C9
:105750000000000000000000000000000000000049
:105760000000000000000000000000000000000039
:105770000000000000000000000000000000000029
:105780000000000000000000000000000000000019
:105790000000000000000000000000000000000009
:1057A00000000000000000000000000000000000F9
:1057B00000000000000000000000000000000000E9
:1057C00000000000000000000000000000000000D9
:1057D00000000000000000000000000000000000C9
:1057E00001000000000000000E33CDAB34126DE666
:1057F000ECDE05000B0000000000000000000000CF
:105800000000000000000000000000000000000098
:105810000000000000000000000000000000000088
:105820000000000000000000000000000000000078
:105830000000000000000000000000000000000068
:045B6000640F0024AA
:0400000508000B19CB
:00000001FF
